{"abi":[{"type":"function","name":"proof","inputs":[],"outputs":[{"name":"","type":"tuple","internalType":"struct Proof","components":[{"name":"seal","type":"tuple","internalType":"struct Seal","components":[{"name":"verifierSelector","type":"bytes4","internalType":"bytes4"},{"name":"seal","type":"bytes32[8]","internalType":"bytes32[8]"},{"name":"mode","type":"uint8","internalType":"enum ProofMode"}]},{"name":"callGuestId","type":"bytes32","internalType":"bytes32"},{"name":"length","type":"uint256","internalType":"uint256"},{"name":"callAssumptions","type":"tuple","internalType":"struct CallAssumptions","components":[{"name":"proverContractAddress","type":"address","internalType":"address"},{"name":"functionSelector","type":"bytes4","internalType":"bytes4"},{"name":"settleChainId","type":"uint256","internalType":"uint256"},{"name":"settleBlockNumber","type":"uint256","internalType":"uint256"},{"name":"settleBlockHash","type":"bytes32","internalType":"bytes32"}]}]}],"stateMutability":"pure"},{"type":"function","name":"setBlock","inputs":[{"name":"blockNo","type":"uint256","internalType":"uint256"}],"outputs":[],"stateMutability":"nonpayable"},{"type":"function","name":"setChain","inputs":[{"name":"chainId","type":"uint256","internalType":"uint256"},{"name":"blockNo","type":"uint256","internalType":"uint256"}],"outputs":[],"stateMutability":"nonpayable"},{"type":"function","name":"sum","inputs":[{"name":"lhs","type":"uint256","internalType":"uint256"},{"name":"rhs","type":"uint256","internalType":"uint256"}],"outputs":[{"name":"","type":"uint256","internalType":"uint256"}],"stateMutability":"pure"},{"type":"function","name":"web_proof","inputs":[{"name":"webProof","type":"tuple","internalType":"struct WebProof","components":[{"name":"webProofJson","type":"string","internalType":"string"}]}],"outputs":[{"name":"","type":"bool","internalType":"bool"}],"stateMutability":"view"},{"type":"error","name":"FailedInnerCall","inputs":[]}],"bytecode":{"object":"0x6080604052348015600e575f5ffd5b50610d8a8061001c5f395ff3fe608060405234801561000f575f5ffd5b5060043610610055575f3560e01c806387cea3ae14610059578063cad0899b1461006e578063e752d2a014610094578063faf924cf146100b7578063ffbc5638146100cc575b5f5ffd5b61006c61006736600461080d565b6100df565b005b61008161007c366004610824565b6101a6565b6040519081526020015b60405180910390f35b6100a76100a2366004610844565b6101ba565b604051901515815260200161008b565b6100bf61034d565b60405161008b9190610882565b61006c6100da366004610824565b610362565b6040516343e751d760e11b8152600481018290527376dc9aa45aa006a0f63942d8f9f21bd4537972a3906387cea3ae906024016020604051808303815f875af115801561012e573d5f5f3e3d5ffd5b505050506040513d601f19601f820116820180604052508101906101529190610951565b6101a35760405162461bcd60e51b815260206004820152601b60248201527f4661696c6564206368656174636f646520696e766f636174696f6e000000000060448201526064015b60405180910390fd5b50565b5f6101b18284610970565b90505b92915050565b5f806101cd6101c884610a24565b61042f565b90506101f66040518060600160405280602b8152602001610d2a602b9139604083015190610534565b6102325760405162461bcd60e51b815260206004820152600d60248201526c125b98dbdc9c9958dd08155493609a1b604482015260640161019a565b61025981602001516040518060e0016040528060ae8152602001610c7c60ae9139906105ee565b6102a55760405162461bcd60e51b815260206004820152601960248201527f496e76616c6964206e6f74617279207075626c6963206b657900000000000000604482015260640161019a565b610302604051806040016040528060058152602001640776b7472360dc1b8152506102fc6040518060400160405280600b81526020016a73637265656e5f6e616d6560a81b8152508461061290919063ffffffff16565b906105ee565b6103445760405162461bcd60e51b8152602060048201526013602482015272496e76616c69642073637265656e206e616d6560681b604482015260640161019a565b50600192915050565b610355610760565b61035d610706565b905090565b60405160016208753960e31b0319815260048101839052602481018290527376dc9aa45aa006a0f63942d8f9f21bd4537972a39063ffbc5638906044016020604051808303815f875af11580156103bb573d5f5f3e3d5ffd5b505050506040513d601f19601f820116820180604052508101906103df9190610951565b61042b5760405162461bcd60e51b815260206004820152601b60248201527f4661696c6564206368656174636f646520696e766f636174696f6e0000000000604482015260640161019a565b5050565b61045360405180606001604052806060815260200160608152602001606081525090565b81516040515f9182916101009161046991610ac5565b5f60405180830381855afa9150503d805f81146104a1576040519150601f19603f3d011682016040523d82523d5f602084013e6104a6565b606091505b50915091506104b5828261071b565b505f818060200190518101906104cb9190610b28565b90506040518060600160405280826002600481106104eb576104eb610bbe565b602002015181526020018260036004811061050857610508610bbe565b60200201518152602001825f6004811061052457610524610bbe565b6020020151905295945050505050565b5f5f5f6101206001600160a01b03166040518060400160405280878152602001868152506040516020016105689190610bd2565b60408051601f198184030181529082905261058291610ac5565b5f60405180830381855afa9150503d805f81146105ba576040519150601f19603f3d011682016040523d82523d5f602084013e6105bf565b606091505b50915091506105ce828261071b565b505f818060200190518101906105e49190610951565b9695505050505050565b5f815183511480156101b15750508051602091820120825192909101919091201490565b8151516060906106545760405162461bcd60e51b815260206004820152600d60248201526c426f647920697320656d70747960981b604482015260640161019a565b60408051808201825284518152602080820185905291515f92610678929101610bd2565b60405160208183030381529060405290505f5f6101026001600160a01b0316836040516106a59190610ac5565b5f60405180830381855afa9150503d805f81146106dd576040519150601f19603f3d011682016040523d82523d5f602084013e6106e2565b606091505b50915091506106f1828261071b565b50808060200190518101906105e49190610c41565b61070e610760565b610716610760565b919050565b6060826107305761072b82610737565b6101b4565b50806101b4565b8051156107475780518082602001fd5b604051630a12f52160e11b815260040160405180910390fd5b60405180608001604052806107736107c9565b81526020015f81526020015f81526020016107c46040518060a001604052805f6001600160a01b031681526020015f6001600160e01b03191681526020015f81526020015f81526020015f81525090565b905290565b60408051606081019091525f8152602081016107e36107ee565b81526020015f905290565b6040518061010001604052806008906020820280368337509192915050565b5f6020828403121561081d575f5ffd5b5035919050565b5f5f60408385031215610835575f5ffd5b50508035926020909101359150565b5f60208284031215610854575f5ffd5b813567ffffffffffffffff81111561086a575f5ffd5b82016020818503121561087b575f5ffd5b9392505050565b815180516001600160e01b03191682526020808201516102208401929184015f5b60088110156108c25782518252602092830192909101906001016108a3565b50505060400151600281106108e557634e487b7160e01b5f52602160045260245ffd5b61012083015260208381015161014084015260408085015161016085015260609485015180516001600160a01b0316610180860152918201516001600160e01b0319166101a08501528101516101c0840152928301516101e08301526080909201516102009091015290565b5f60208284031215610961575f5ffd5b8151801515811461087b575f5ffd5b808201808211156101b457634e487b7160e01b5f52601160045260245ffd5b634e487b7160e01b5f52604160045260245ffd5b6040516080810167ffffffffffffffff811182821017156109c6576109c661098f565b60405290565b604051601f8201601f1916810167ffffffffffffffff811182821017156109f5576109f561098f565b604052919050565b5f67ffffffffffffffff821115610a1657610a1661098f565b50601f01601f191660200190565b5f60208236031215610a34575f5ffd5b6040516020810167ffffffffffffffff81118282101715610a5757610a5761098f565b604052823567ffffffffffffffff811115610a70575f5ffd5b830136601f820112610a80575f5ffd5b8035610a93610a8e826109fd565b6109cc565b818152366020838501011115610aa7575f5ffd5b816020840160208301375f9181016020019190915282525092915050565b5f82518060208501845e5f920191825250919050565b5f82601f830112610aea575f5ffd5b8151610af8610a8e826109fd565b818152846020838601011115610b0c575f5ffd5b8160208501602083015e5f918101602001919091529392505050565b5f60208284031215610b38575f5ffd5b815167ffffffffffffffff811115610b4e575f5ffd5b8201601f81018413610b5e575f5ffd5b610b666109a3565b806080830186811115610b77575f5ffd5b835b81811015610bb257805167ffffffffffffffff811115610b97575f5ffd5b610ba389828801610adb565b85525060209384019301610b79565b50909695505050505050565b634e487b7160e01b5f52603260045260245ffd5b60208082525f906060830190830184835b6002811015610c3657601f19868503018352815180518086528060208301602088015e5f602082880101526020601f19601f83011687010195505050602082019150602083019250600181019050610be3565b509195945050505050565b5f60208284031215610c51575f5ffd5b815167ffffffffffffffff811115610c67575f5ffd5b610c7384828501610adb565b94935050505056fe2d2d2d2d2d424547494e205055424c4943204b45592d2d2d2d2d0a4d465977454159484b6f5a497a6a3043415159464b34454541416f44516741455a54396e4a6977684745534c6a77514e6e5a324d735a3178776a477a766d68460a78466938566a7a616e6c6964627363316e674d2b73316e7a6c526b5a4935554b39426e677a6d433237424f30715878505365704977513d3d0a2d2d2d2d2d454e44205055424c4943204b45592d2d2d2d2d0a68747470733a2f2f6170692e782e636f6d2f312e312f6163636f756e742f73657474696e67732e6a736f6ea2646970667358221220a0fad2fabdd8150a33936295fcdb9d7b2d801030b1cae04b8b734c0c13aa14f464736f6c634300081b0033","linkReferences":{}},"methodIdentifiers":{"proof()":"faf924cf","setBlock(uint256)":"87cea3ae","setChain(uint256,uint256)":"ffbc5638","sum(uint256,uint256)":"cad0899b","web_proof((string))":"e752d2a0"},"id":56}