{"abi":[{"type":"function","name":"proof","inputs":[],"outputs":[{"name":"","type":"tuple","internalType":"struct Proof","components":[{"name":"seal","type":"tuple","internalType":"struct Seal","components":[{"name":"verifierSelector","type":"bytes4","internalType":"bytes4"},{"name":"seal","type":"bytes32[8]","internalType":"bytes32[8]"},{"name":"mode","type":"uint8","internalType":"enum ProofMode"}]},{"name":"callGuestId","type":"bytes32","internalType":"bytes32"},{"name":"length","type":"uint256","internalType":"uint256"},{"name":"callAssumptions","type":"tuple","internalType":"struct CallAssumptions","components":[{"name":"proverContractAddress","type":"address","internalType":"address"},{"name":"functionSelector","type":"bytes4","internalType":"bytes4"},{"name":"settleChainId","type":"uint256","internalType":"uint256"},{"name":"settleBlockNumber","type":"uint256","internalType":"uint256"},{"name":"settleBlockHash","type":"bytes32","internalType":"bytes32"}]}]}],"stateMutability":"pure"},{"type":"function","name":"setBlock","inputs":[{"name":"blockNo","type":"uint256","internalType":"uint256"}],"outputs":[],"stateMutability":"nonpayable"},{"type":"function","name":"setChain","inputs":[{"name":"chainId","type":"uint256","internalType":"uint256"},{"name":"blockNo","type":"uint256","internalType":"uint256"}],"outputs":[],"stateMutability":"nonpayable"},{"type":"function","name":"sum","inputs":[{"name":"lhs","type":"uint256","internalType":"uint256"},{"name":"rhs","type":"uint256","internalType":"uint256"}],"outputs":[{"name":"","type":"uint256","internalType":"uint256"}],"stateMutability":"pure"},{"type":"function","name":"web_proof","inputs":[{"name":"webProof","type":"tuple","internalType":"struct WebProof","components":[{"name":"webProofJson","type":"string","internalType":"string"}]}],"outputs":[{"name":"","type":"bool","internalType":"bool"}],"stateMutability":"view"},{"type":"error","name":"FailedInnerCall","inputs":[]}],"bytecode":{"object":"0x6080604052348015600e575f5ffd5b50610d9a8061001c5f395ff3fe608060405234801561000f575f5ffd5b5060043610610055575f3560e01c806387cea3ae14610059578063cad0899b1461006e578063e752d2a014610094578063faf924cf146100b7578063ffbc5638146100cc575b5f5ffd5b61006c610067366004610801565b6100df565b005b61008161007c366004610818565b6101a6565b6040519081526020015b60405180910390f35b6100a76100a2366004610838565b6101ba565b604051901515815260200161008b565b6100bf610341565b60405161008b9190610876565b61006c6100da366004610818565b610356565b6040516343e751d760e11b8152600481018290527376dc9aa45aa006a0f63942d8f9f21bd4537972a3906387cea3ae906024016020604051808303815f875af115801561012e573d5f5f3e3d5ffd5b505050506040513d601f19601f820116820180604052508101906101529190610945565b6101a35760405162461bcd60e51b815260206004820152601b60248201527f4661696c6564206368656174636f646520696e766f636174696f6e000000000060448201526064015b60405180910390fd5b50565b5f6101b18284610964565b90505b92915050565b5f806101cd6101c884610a18565b610423565b90506101f6604051806080016040528060478152602001610c7060479139604083015190610528565b6102325760405162461bcd60e51b815260206004820152600d60248201526c125b98dbdc9c9958dd08155493609a1b604482015260640161019a565b61025981602001516040518060e0016040528060ae8152602001610cb760ae9139906105e2565b6102a55760405162461bcd60e51b815260206004820152601960248201527f496e76616c6964206e6f74617279207075626c6963206b657900000000000000604482015260640161019a565b6102fd6040518060400160405280600781526020016623b0b73230b63360c91b8152506102f7604051806040016040528060048152602001636e616d6560e01b8152508461060690919063ffffffff16565b906105e2565b6103385760405162461bcd60e51b815260206004820152600c60248201526b496e76616c6964206e616d6560a01b604482015260640161019a565b50600192915050565b610349610754565b6103516106fa565b905090565b60405160016208753960e31b0319815260048101839052602481018290527376dc9aa45aa006a0f63942d8f9f21bd4537972a39063ffbc5638906044016020604051808303815f875af11580156103af573d5f5f3e3d5ffd5b505050506040513d601f19601f820116820180604052508101906103d39190610945565b61041f5760405162461bcd60e51b815260206004820152601b60248201527f4661696c6564206368656174636f646520696e766f636174696f6e0000000000604482015260640161019a565b5050565b61044760405180606001604052806060815260200160608152602001606081525090565b81516040515f9182916101009161045d91610ab9565b5f60405180830381855afa9150503d805f8114610495576040519150601f19603f3d011682016040523d82523d5f602084013e61049a565b606091505b50915091506104a9828261070f565b505f818060200190518101906104bf9190610b1c565b90506040518060600160405280826002600481106104df576104df610bb2565b60200201518152602001826003600481106104fc576104fc610bb2565b60200201518152602001825f6004811061051857610518610bb2565b6020020151905295945050505050565b5f5f5f6101206001600160a01b031660405180604001604052808781526020018681525060405160200161055c9190610bc6565b60408051601f198184030181529082905261057691610ab9565b5f60405180830381855afa9150503d805f81146105ae576040519150601f19603f3d011682016040523d82523d5f602084013e6105b3565b606091505b50915091506105c2828261070f565b505f818060200190518101906105d89190610945565b9695505050505050565b5f815183511480156101b15750508051602091820120825192909101919091201490565b8151516060906106485760405162461bcd60e51b815260206004820152600d60248201526c426f647920697320656d70747960981b604482015260640161019a565b60408051808201825284518152602080820185905291515f9261066c929101610bc6565b60405160208183030381529060405290505f5f6101026001600160a01b0316836040516106999190610ab9565b5f60405180830381855afa9150503d805f81146106d1576040519150601f19603f3d011682016040523d82523d5f602084013e6106d6565b606091505b50915091506106e5828261070f565b50808060200190518101906105d89190610c35565b610702610754565b61070a610754565b919050565b6060826107245761071f8261072b565b6101b4565b50806101b4565b80511561073b5780518082602001fd5b604051630a12f52160e11b815260040160405180910390fd5b60405180608001604052806107676107bd565b81526020015f81526020015f81526020016107b86040518060a001604052805f6001600160a01b031681526020015f6001600160e01b03191681526020015f81526020015f81526020015f81525090565b905290565b60408051606081019091525f8152602081016107d76107e2565b81526020015f905290565b6040518061010001604052806008906020820280368337509192915050565b5f60208284031215610811575f5ffd5b5035919050565b5f5f60408385031215610829575f5ffd5b50508035926020909101359150565b5f60208284031215610848575f5ffd5b813567ffffffffffffffff81111561085e575f5ffd5b82016020818503121561086f575f5ffd5b9392505050565b815180516001600160e01b03191682526020808201516102208401929184015f5b60088110156108b6578251825260209283019290910190600101610897565b50505060400151600281106108d957634e487b7160e01b5f52602160045260245ffd5b61012083015260208381015161014084015260408085015161016085015260609485015180516001600160a01b0316610180860152918201516001600160e01b0319166101a08501528101516101c0840152928301516101e08301526080909201516102009091015290565b5f60208284031215610955575f5ffd5b8151801515811461086f575f5ffd5b808201808211156101b457634e487b7160e01b5f52601160045260245ffd5b634e487b7160e01b5f52604160045260245ffd5b6040516080810167ffffffffffffffff811182821017156109ba576109ba610983565b60405290565b604051601f8201601f1916810167ffffffffffffffff811182821017156109e9576109e9610983565b604052919050565b5f67ffffffffffffffff821115610a0a57610a0a610983565b50601f01601f191660200190565b5f60208236031215610a28575f5ffd5b6040516020810167ffffffffffffffff81118282101715610a4b57610a4b610983565b604052823567ffffffffffffffff811115610a64575f5ffd5b830136601f820112610a74575f5ffd5b8035610a87610a82826109f1565b6109c0565b818152366020838501011115610a9b575f5ffd5b816020840160208301375f9181016020019190915282525092915050565b5f82518060208501845e5f920191825250919050565b5f82601f830112610ade575f5ffd5b8151610aec610a82826109f1565b818152846020838601011115610b00575f5ffd5b8160208501602083015e5f918101602001919091529392505050565b5f60208284031215610b2c575f5ffd5b815167ffffffffffffffff811115610b42575f5ffd5b8201601f81018413610b52575f5ffd5b610b5a610997565b806080830186811115610b6b575f5ffd5b835b81811015610ba657805167ffffffffffffffff811115610b8b575f5ffd5b610b9789828801610acf565b85525060209384019301610b6d565b50909695505050505050565b634e487b7160e01b5f52603260045260245ffd5b60208082525f906060830190830184835b6002811015610c2a57601f19868503018352815180518086528060208301602088015e5f602082880101526020601f19601f83011687010195505050602082019150602083019250600181019050610bd7565b509195945050505050565b5f60208284031215610c45575f5ffd5b815167ffffffffffffffff811115610c5b575f5ffd5b610c6784828501610acf565b94935050505056fe68747470733a2f2f6c6f74722d6170692e6f6e6c696e652f726567756c61725f6a736f6e3f6172655f796f755f737572653d79657326617574683d7333637265745f74306b656e2d2d2d2d2d424547494e205055424c4943204b45592d2d2d2d2d0a4d465977454159484b6f5a497a6a3043415159464b34454541416f445167414565306a786e424f6261496a37586a673654584c434d3147472f566859353635300a4f72532f6a6763624275666f2f51446646764c2f69727a4976314a536d684769566373434843776f6c684458576367653776324973513d3d0a2d2d2d2d2d454e44205055424c4943204b45592d2d2d2d2d0aa2646970667358221220f9b2d898018fbe0aee235da124caa39611f5bcb115cd41015e9113c64e18170d64736f6c634300081b0033","linkReferences":{}},"methodIdentifiers":{"proof()":"faf924cf","setBlock(uint256)":"87cea3ae","setChain(uint256,uint256)":"ffbc5638","sum(uint256,uint256)":"cad0899b","web_proof((string))":"e752d2a0"},"id":55}