{"abi":[{"type":"constructor","inputs":[],"stateMutability":"nonpayable"},{"type":"function","name":"setBlock","inputs":[{"name":"blockNo","type":"uint256","internalType":"uint256"}],"outputs":[],"stateMutability":"nonpayable"},{"type":"function","name":"setChain","inputs":[{"name":"chainId","type":"uint256","internalType":"uint256"},{"name":"blockNo","type":"uint256","internalType":"uint256"}],"outputs":[],"stateMutability":"nonpayable"},{"type":"function","name":"sum","inputs":[{"name":"lhs","type":"uint256","internalType":"uint256"},{"name":"rhs","type":"uint256","internalType":"uint256"}],"outputs":[{"name":"","type":"uint256","internalType":"uint256"}],"stateMutability":"pure"},{"type":"function","name":"web_proof","inputs":[{"name":"webProof","type":"tuple","internalType":"struct WebProof","components":[{"name":"webProofJson","type":"string","internalType":"string"},{"name":"body","type":"string","internalType":"string"}]}],"outputs":[{"name":"","type":"bool","internalType":"bool"}],"stateMutability":"view"}],"bytecode":{"object":"0x6080604052348015600f57600080fd5b50610b8b8061001f6000396000f3fe608060405234801561001057600080fd5b506004361061004c5760003560e01c80637c9fe7571461005157806387cea3ae14610079578063cad0899b1461008e578063ffbc5638146100af575b600080fd5b61006461005f3660046105fe565b6100c2565b60405190151581526020015b60405180910390f35b61008c610087366004610640565b6101a5565b005b6100a161009c366004610659565b61021f565b604051908152602001610070565b61008c6100bd366004610659565b610234565b6000806100f36040518061018001604052806101518152602001610a0561015191396100ed85610769565b906102b9565b9050610155604051806040016040528060088152602001676a6162363835303360c01b81525061014f6040518060400160405280600b81526020016a73637265656e5f6e616d6560a81b8152508461047790919063ffffffff16565b906105d9565b61019c5760405162461bcd60e51b8152602060048201526013602482015272496e76616c69642073637265656e5f6e616d6560681b60448201526064015b60405180910390fd5b50600192915050565b6040516343e751d760e11b8152600481018290527376dc9aa45aa006a0f63942d8f9f21bd4537972a3906387cea3ae906024016020604051808303816000875af11580156101f7573d6000803e3d6000fd5b505050506040513d601f19601f8201168201806040525081019061021b91906107f9565b5050565b600061022b828461081b565b90505b92915050565b60405160016208753960e31b0319815260048101839052602481018290527376dc9aa45aa006a0f63942d8f9f21bd4537972a39063ffbc5638906044016020604051808303816000875af1158015610290573d6000803e3d6000fd5b505050506040513d601f19601f820116820180604052508101906102b491906107f9565b505050565b604080518082019091526060808252602082015282516040516000918291610100916102e491610860565b600060405180830381855afa9150503d806000811461031f576040519150601f19603f3d011682016040523d82523d6000602084013e610324565b606091505b509150915060008180602001905181019061033f91906108c9565b6040805180820190915260098152686170692e782e636f6d60b81b602082015290915081600260200201518760200181905250836103cf5760405162461bcd60e51b815260206004820152602760248201527f7665726966795f616e645f706172736520707265636f6d70696c652063616c6c6044820152660819985a5b195960ca1b6064820152608401610193565b81516103dc9087906105d9565b6104185760405162461bcd60e51b815260206004820152600d60248201526c125b98dbdc9c9958dd08155493609a1b6044820152606401610193565b60208201516104289082906105d9565b61046c5760405162461bcd60e51b815260206004820152601560248201527414d95c9d995c881b985b59481b9bdd08199bdd5b99605a1b6044820152606401610193565b509495945050505050565b60606000836020015151116104be5760405162461bcd60e51b815260206004820152600d60248201526c426f647920697320656d70747960981b6044820152606401610193565b6000604051806040016040528085602001518152602001848152506040516020016104e99190610965565b60405160208183030381529060405290506000806101016001600160a01b0316836040516105179190610860565b600060405180830381855afa9150503d8060008114610552576040519150601f19603f3d011682016040523d82523d6000602084013e610557565b606091505b5091509150816105b85760405162461bcd60e51b815260206004820152602660248201527f6a736f6e5f6765745f737472696e6720707265636f6d70696c652063616c6c2060448201526519985a5b195960d21b6064820152608401610193565b6000818060200190518101906105ce91906109cf565b979650505050505050565b60008151835114801561022b5750508051602091820120825192909101919091201490565b60006020828403121561061057600080fd5b813567ffffffffffffffff81111561062757600080fd5b82016040818503121561063957600080fd5b9392505050565b60006020828403121561065257600080fd5b5035919050565b6000806040838503121561066c57600080fd5b50508035926020909101359150565b634e487b7160e01b600052604160045260246000fd5b6040516060810167ffffffffffffffff811182821017156106b4576106b461067b565b60405290565b604051601f8201601f1916810167ffffffffffffffff811182821017156106e3576106e361067b565b604052919050565b600067ffffffffffffffff8211156107055761070561067b565b50601f01601f191660200190565b600082601f83011261072457600080fd5b8135610737610732826106eb565b6106ba565b81815284602083860101111561074c57600080fd5b816020850160208301376000918101602001919091529392505050565b60006040823603121561077b57600080fd5b6040805190810167ffffffffffffffff8111828210171561079e5761079e61067b565b604052823567ffffffffffffffff8111156107b857600080fd5b6107c436828601610713565b825250602083013567ffffffffffffffff8111156107e157600080fd5b6107ed36828601610713565b60208301525092915050565b60006020828403121561080b57600080fd5b8151801515811461063957600080fd5b8082018082111561022e57634e487b7160e01b600052601160045260246000fd5b60005b8381101561085757818101518382015260200161083f565b50506000910152565b6000825161087281846020870161083c565b9190910192915050565b600082601f83011261088d57600080fd5b815161089b610732826106eb565b8181528460208386010111156108b057600080fd5b6108c182602083016020870161083c565b949350505050565b6000602082840312156108db57600080fd5b815167ffffffffffffffff8111156108f257600080fd5b8201601f8101841361090357600080fd5b61090b610691565b80606083018681111561091d57600080fd5b835b8181101561095957805167ffffffffffffffff81111561093e57600080fd5b61094a8982880161087c565b8552506020938401930161091f565b50909695505050505050565b60208082526000906060830190830184835b60028110156109c457601f19868503018352815180518086526109a181602088016020850161083c565b601f01601f19169490940160209081019450928301929190910190600101610977565b509195945050505050565b6000602082840312156109e157600080fd5b815167ffffffffffffffff8111156109f857600080fd5b6108c18482850161087c56fe68747470733a2f2f6170692e782e636f6d2f312e312f6163636f756e742f73657474696e67732e6a736f6e3f696e636c7564655f6578745f73686172696e675f617564696f7370616365735f6c697374656e696e675f646174615f776974685f666f6c6c6f776572733d7472756526696e636c7564655f6d656e74696f6e5f66696c7465723d7472756526696e636c7564655f6e7366775f757365725f666c61673d7472756526696e636c7564655f6e7366775f61646d696e5f666c61673d7472756526696e636c7564655f72616e6b65645f74696d656c696e653d7472756526696e636c7564655f616c745f746578745f636f6d706f73653d74727565266578743d73736f436f6e6e656374696f6e7326696e636c7564655f636f756e7472795f636f64653d7472756526696e636c7564655f6578745f646d5f6e7366775f6d656469615f66696c7465723d74727565a2646970667358221220c8ec7ff16c428b04b44535d5870917e50493ceca36069b69858d5b80cc4b8a5b64736f6c634300081a0033","linkReferences":{}},"methodIdentifiers":{"setBlock(uint256)":"87cea3ae","setChain(uint256,uint256)":"ffbc5638","sum(uint256,uint256)":"cad0899b","web_proof((string,string))":"7c9fe757"},"id":7}