{"abi":[{"type":"constructor","inputs":[],"stateMutability":"nonpayable"},{"type":"function","name":"setBlock","inputs":[{"name":"blockNo","type":"uint256","internalType":"uint256"}],"outputs":[],"stateMutability":"nonpayable"},{"type":"function","name":"setChain","inputs":[{"name":"chainId","type":"uint256","internalType":"uint256"},{"name":"blockNo","type":"uint256","internalType":"uint256"}],"outputs":[],"stateMutability":"nonpayable"},{"type":"function","name":"sum","inputs":[{"name":"lhs","type":"uint256","internalType":"uint256"},{"name":"rhs","type":"uint256","internalType":"uint256"}],"outputs":[{"name":"","type":"uint256","internalType":"uint256"}],"stateMutability":"pure"},{"type":"function","name":"web_proof","inputs":[{"name":"webProof","type":"tuple","internalType":"struct WebProof","components":[{"name":"webProofJson","type":"string","internalType":"string"}]}],"outputs":[{"name":"","type":"bool","internalType":"bool"}],"stateMutability":"view"}],"bytecode":{"object":"0x6080604052348015600f57600080fd5b50610b1c8061001f6000396000f3fe608060405234801561001057600080fd5b506004361061004c5760003560e01c806387cea3ae14610051578063cad0899b14610066578063e752d2a01461008c578063ffbc5638146100af575b600080fd5b61006461005f3660046105ce565b6100c2565b005b6100796100743660046105e7565b61013c565b6040519081526020015b60405180910390f35b61009f61009a366004610609565b610151565b6040519015158152602001610083565b6100646100bd3660046105e7565b61022b565b6040516343e751d760e11b8152600481018290527376dc9aa45aa006a0f63942d8f9f21bd4537972a3906387cea3ae906024016020604051808303816000875af1158015610114573d6000803e3d6000fd5b505050506040513d601f19601f82011682018060405250810190610138919061064b565b5050565b6000610148828461066d565b90505b92915050565b6000806101826040518061018001604052806101518152602001610996610151913961017c85610726565b906102b0565b90506101db604051806040016040528060088152602001676a6162363835303360c01b8152506101d5836040518060400160405280600b81526020016a73637265656e5f6e616d6560a81b81525061045a565b906105a9565b6102225760405162461bcd60e51b8152602060048201526013602482015272496e76616c69642073637265656e5f6e616d6560681b60448201526064015b60405180910390fd5b50600192915050565b60405160016208753960e31b0319815260048101839052602481018290527376dc9aa45aa006a0f63942d8f9f21bd4537972a39063ffbc5638906044016020604051808303816000875af1158015610287573d6000803e3d6000fd5b505050506040513d601f19601f820116820180604052508101906102ab919061064b565b505050565b60606000806101006001600160a01b031685600001516040516102d391906107f1565b600060405180830381855afa9150503d806000811461030e576040519150601f19603f3d011682016040523d82523d6000602084013e610313565b606091505b509150915060008180602001905181019061032e919061085a565b60408051808201825260098152686170692e782e636f6d60b81b60208201529082015191925090846103b25760405162461bcd60e51b815260206004820152602760248201527f7665726966795f616e645f706172736520707265636f6d70696c652063616c6c6044820152660819985a5b195960ca1b6064820152608401610219565b82516103bf9088906105a9565b6103fb5760405162461bcd60e51b815260206004820152600d60248201526c125b98dbdc9c9958dd08155493609a1b6044820152606401610219565b602083015161040b9083906105a9565b61044f5760405162461bcd60e51b815260206004820152601560248201527414d95c9d995c881b985b59481b9bdd08199bdd5b99605a1b6044820152606401610219565b979650505050505050565b6060600083511161049d5760405162461bcd60e51b815260206004820152600d60248201526c426f647920697320656d70747960981b6044820152606401610219565b60006040518060400160405280858152602001848152506040516020016104c491906108f6565b60405160208183030381529060405290506000806101016001600160a01b0316836040516104f291906107f1565b600060405180830381855afa9150503d806000811461052d576040519150601f19603f3d011682016040523d82523d6000602084013e610532565b606091505b5091509150816105935760405162461bcd60e51b815260206004820152602660248201527f6a736f6e5f6765745f737472696e6720707265636f6d70696c652063616c6c2060448201526519985a5b195960d21b6064820152608401610219565b60008180602001905181019061044f9190610960565b6000815183511480156101485750508051602091820120825192909101919091201490565b6000602082840312156105e057600080fd5b5035919050565b600080604083850312156105fa57600080fd5b50508035926020909101359150565b60006020828403121561061b57600080fd5b813567ffffffffffffffff81111561063257600080fd5b82016020818503121561064457600080fd5b9392505050565b60006020828403121561065d57600080fd5b8151801515811461064457600080fd5b8082018082111561014b57634e487b7160e01b600052601160045260246000fd5b634e487b7160e01b600052604160045260246000fd5b6040516060810167ffffffffffffffff811182821017156106c7576106c761068e565b60405290565b604051601f8201601f1916810167ffffffffffffffff811182821017156106f6576106f661068e565b604052919050565b600067ffffffffffffffff8211156107185761071861068e565b50601f01601f191660200190565b60006020823603121561073857600080fd5b6040516020810167ffffffffffffffff8111828210171561075b5761075b61068e565b604052823567ffffffffffffffff81111561077557600080fd5b830136601f82011261078657600080fd5b8035610799610794826106fe565b6106cd565b8181523660208385010111156107ae57600080fd5b8160208401602083013760009181016020019190915282525092915050565b60005b838110156107e85781810151838201526020016107d0565b50506000910152565b600082516108038184602087016107cd565b9190910192915050565b600082601f83011261081e57600080fd5b815161082c610794826106fe565b81815284602083860101111561084157600080fd5b6108528260208301602087016107cd565b949350505050565b60006020828403121561086c57600080fd5b815167ffffffffffffffff81111561088357600080fd5b8201601f8101841361089457600080fd5b61089c6106a4565b8060608301868111156108ae57600080fd5b835b818110156108ea57805167ffffffffffffffff8111156108cf57600080fd5b6108db8982880161080d565b855250602093840193016108b0565b50909695505050505050565b60208082526000906060830190830184835b600281101561095557601f19868503018352815180518086526109328160208801602085016107cd565b601f01601f19169490940160209081019450928301929190910190600101610908565b509195945050505050565b60006020828403121561097257600080fd5b815167ffffffffffffffff81111561098957600080fd5b6108528482850161080d56fe68747470733a2f2f6170692e782e636f6d2f312e312f6163636f756e742f73657474696e67732e6a736f6e3f696e636c7564655f6578745f73686172696e675f617564696f7370616365735f6c697374656e696e675f646174615f776974685f666f6c6c6f776572733d7472756526696e636c7564655f6d656e74696f6e5f66696c7465723d7472756526696e636c7564655f6e7366775f757365725f666c61673d7472756526696e636c7564655f6e7366775f61646d696e5f666c61673d7472756526696e636c7564655f72616e6b65645f74696d656c696e653d7472756526696e636c7564655f616c745f746578745f636f6d706f73653d74727565266578743d73736f436f6e6e656374696f6e7326696e636c7564655f636f756e7472795f636f64653d7472756526696e636c7564655f6578745f646d5f6e7366775f6d656469615f66696c7465723d74727565a2646970667358221220471116bc38407d14713e80d40ee3b3b975d4da3a0bf236849028cc4ce88ca07e64736f6c634300081a0033","linkReferences":{}},"methodIdentifiers":{"setBlock(uint256)":"87cea3ae","setChain(uint256,uint256)":"ffbc5638","sum(uint256,uint256)":"cad0899b","web_proof((string))":"e752d2a0"},"id":7}